:0400000014EF00F009
:08000800FACFFFF504ED04F04E
:10001800D8CFE4F5E0CF10F0FACFE3F5BBEF04F06A
:1000280000EEF7F0090EEE6AE806FDE1106A0F6AC5
:1000380005EEC4F0EE6AEE6AEE6AEE6A1AEF05F0B3
:100600003F065B4F666D7D077F6F777C395E797142
:100610000102040810204000D96ED95002E18288FE
:1006200001D08298D90402E1828A01D0829AD950FD
:10063000020A02E1828401D08294D950030A02E1C5
:100640008286120082961200FF00D96E170ED964BE
:1006500001D0D96ED9CF00F0016A0050000FF66EBC
:100660000150F76E060EF7220800F550006E0030BC
:1006700002E3838401D08394D9CF00F0016A005053
:10068000000FF66E0150F76E060EF7220800F550C7
:10069000006E010E016ED8900032012EFCD70030A2
:1006A00002E3838601D08396D9CF00F0016A00501F
:1006B000000FF66E0150F76E060EF7220800F55097
:1006C000006E020E016ED8900032012EFCD7003071
:1006D00002E3838A01D0839AD9CF00F0016A0050E7
:1006E000000FF66E0150F76E060EF7220800F55067
:1006F000006E030E016ED8900032012EFCD7003040
:1007000002E3838C01D0839CD9CF00F0016A0050B2
:10071000000FF66E0150F76E060EF7220800F55036
:10072000006E003A0F0E0016003002E3838E01D0F7
:10073000839ED9CF00F0016A0050000FF66E015081
:10074000F76E060EF7220800F550006E050E016EDA
:10075000D8900032012EFCD7003002E3838201D012
:100760008392D9CF00F0016A0050000FF66E01505D
:10077000F76E060EF7220800F550006E060E016EA9
:10078000D8900032012EFCD7003002E3838001D0E4
:100790008390FFC000F0003002E38388120083984A
:1007A0001200010EE16E956A949494969498949A2E
:1007B000040E32DF0001FF6B170E47DF010C010E44
:1007C000E16E040E29DFC4C5E8FF020DF80EF32424
:1007D000D96E000EF420DA6EDF500001FF6FC4C541
:1007E000E8FF020DF70EF324D96E000EF420DA6E46
:1007F000DF502BDFC4C5E8FF0FDF0501C42B030E5C
:10080000C465010CC46B010C0600E9CFFEF5EACF0C
:10081000FDF5E1CFFCF5E2CFFBF5D9CFFAF5DACF64
:10082000F9F50EC0F8F50DC0F7F50CC0F6F50BC0E4
:10083000F5F50AC0F4F509C0F3F508C0F2F507C0F4
:10084000F1F506C0F0F505C0EFF504C0EEF503C004
:10085000EDF502C0ECF501C0EBF500C0EAF5F7CF0D
:10086000E9F5F6CFE8F5F5CFE7F5F4CFE6F5F3CF08
:10087000E5F59EA006D09E90300ECF6ECE6A0DECB0
:1008800005F0E5C5F3FFE6C5F4FFE7C5F5FFE8C5EC
:10089000F6FFE9C5F7FFEAC500F0EBC501F0ECC5CE
:1008A00002F0EDC503F0EEC504F0EFC505F0F0C5AC
:1008B00006F0F1C507F0F2C508F0F3C509F0F4C57C
:1008C0000AF0F5C50BF0F6C50CF0F7C50DF0F8C54C
:1008D0000EF0F9C5DAFFFAC5D9FFFBC5E2FFFCC58A
:1008E000E1FFFDC5EAFFFEC5E9FFFFC5FAFF110004
:1008F000F2A404D0F294D66A15EC05F0C8C5F3FF53
:10090000C9C5F4FFCAC5F5FFCBC5F6FFCCC5F7FFD7
:10091000CDC500F0CEC501F0CFC502F0D0C503F0C3
:10092000D1C504F0D2C505F0D3C506F0D4C507F093
:10093000D5C508F0D6C509F0D7C50AF0D8C50BF063
:10094000D9C50CF0DAC50DF0DBC50EF0DCC5DAFF59
:10095000DDC5D9FFDEC5E2FFDFC5E1FFE0C5EAFF87
:10096000E1C5E9FFE2C5E8FFE3C5FAFF10C0E0FF1B
:10097000E4C5D8FF1000E8CFE2F5E9CFE1F5EACF12
:10098000E0F5E1CFDFF5E2CFDEF5D9CFDDF5DACF67
:10099000DCF50EC0DBF50DC0DAF50CC0D9F50BC0E7
:1009A000D8F50AC0D7F509C0D6F508C0D5F507C0F7
:1009B000D4F506C0D3F505C0D2F504C0D1F503C007
:1009C000D0F502C0CFF501C0CEF500C0CDF5F7CF10
:1009D000CCF5F6CFCBF5F5CFCAF5F4CFC9F5F3CF0B
:1009E000C8F586D7010ED96E8F0ECD6E300ECF6E44
:1009F000CE6A9F809E909D80D59AD596D584D592BB
:100A0000D580D58CD66AF194F28AD58E0501C76B54
:100A10000501C66B0501C56B010C010ED96E000105
:100A2000F72B00EEFAF0EF1A010C010ED96EE8CFA9
:100A3000C5F5010CF2EC04F0D1EC03F0D08EF28C91
:100A4000F28E956A836A0501C553FDE0C56BDFEC44
:040A500003F0F9D7DF
:00000001FF
