:0400000014EF00F009
:10000800FACF24F1FBCF25F1E9CF26F176ED09F0FF
:10001800D8CF0CF1E8CF0DF1E0CF0EF1DBEF08F00F
:1000280000EE17F01A0EF66E060EF76E10EE18F0C8
:100038002FEC00F000EE00F010EE17F028EC00F0C6
:10004800000EF86E3FEF0AF0EE6AE550E150FCE171
:10005800E250FAE112000900F5CFEEFFE550E15059
:08006800FAE1E250F8E1120098
:10060000003F065B4F666D7D077F6F777C395E79B3
:10061000710102040810204000007C150100000058
:1006200002821564000000027215E8030000020255
:1006300002020CA01EEF03F020EF03F069EF03F0BD
:10064000D8900D300101066F0C300101056F0101DA
:1006500005B12DEF03F02FEF03F069EF03F00F6604
:1006600034EF03F036EF03F046EF03F0002A0050BA
:10067000180AD8A43EEF03F040EF03F046EF03F072
:100680000101056F000E006E010105512D500F2A6A
:100690000F5CD8A04EEF03F050EF03F056EF03F0DD
:1006A0000101056F000E0F6E01010551090E146462
:1006B0005CEF03F05EEF03F066EF03F00101056FFE
:1006C000010E2D6E0101055167EF03F0142A0FEFA3
:1006D00004F00CB06EEF03F070EF03F0B9EF03F02D
:1006E000D8900D300101066F0C300101056F01013A
:1006F00005A17DEF03F07FEF03F0B9EF03F0106683
:1007000084EF03F086EF03F096EF03F0012A015027
:100710003C0AD8A48EEF03F090EF03F096EF03F0BD
:100720000101056F000E016E010105512E50102AC6
:10073000105CD8A09EEF03F0A0EF03F0A6EF03F04B
:100740000101056F000E106E01010551090E1364C1
:10075000ACEF03F0AEEF03F0B6EF03F00101056F6D
:10076000010E2E6E01010551B7EF03F0132A0FEFB2
:1007700004F00CA0BEEF03F0C0EF03F009EF04F0AB
:10078000D8900D300101066F0C300101056F010199
:1007900005A1CDEF03F0CFEF03F009EF04F01266EF
:1007A000D4EF03F0D6EF03F0E6EF03F0032A035093
:1007B000070AD8A4DEEF03F0E0EF03F0E6EF03F062
:1007C0000101056F000E036E010105512C50122A24
:1007D000125CD8A0EEEF03F0F0EF03F0F6EF03F0B9
:1007E0000101056F000E126E01010551090E15641D
:1007F000FCEF03F0FEEF03F006EF04F00101056FDC
:10080000010E2C6E0101055107EF04F0152A0FEFC0
:1008100004F00101056F000E116E01010551120077
:10082000170E01010101046518EF04F01AEF04F03E
:1008300022EF04F00101066F170E01010101046FA0
:1008400001010651010E010101010425F66EF76A4E
:10085000060EF7220800F5CF06F101010631D8A0F7
:1008600001D08384D8B001D08394010E010101012D
:100870000425F66EF76A060EF7220800F5CF06F19A
:10088000D8900101063301010631D8A001D083863A
:10089000D8B001D08396010E010101010425F66E46
:1008A000F76A060EF7220800F5CF06F1D89001018D
:1008B0000633D8900101063301010631D8A001D0DA
:1008C000838AD8B001D0839A010E01010101042569
:1008D000F66EF76A060EF7220800F5CF06F1D890FB
:1008E00001010633D89001010633D8900101063387
:1008F00001010631D8A001D0838CD8B001D0839CEF
:10090000010E010101010425F66EF76A060EF722B9
:100910000800F5CF06F10101063B0F0E0617010195
:100920000631D8A001D0838ED8B001D0839E010EAD
:10093000010101010425F66EF76A060EF722080090
:10094000F5CF06F1050E0101076FD89001010633BE
:100950000101072FA5EF04F001010631D8A001D055
:100960008382D8B001D08392010E010101010425D8
:10097000F66EF76A060EF7220800F5CF06F1060EAE
:100980000101076FD890010106330101072FC2EF63
:1009900004F001010631D8A001D08380D8B001D085
:1009A00083900101010105A101D0838801010101AA
:1009B00005B101D08398120001010A6F000E0101F8
:1009C0000101076F01010A510101010105AFEBEFC0
:1009D00004F0EDEF04F0FCEF04F001010101046DFF
:1009E0000101051FD8B0052B01010A6F010E01019D
:1009F0000101076F01010A510101010103AF03EF7A
:100A000005F005EF05F010EF05F001010101026DA1
:100A10000101031FD8B0032B010E01010101071BC7
:100A2000000E01010101086F000E0101096F0101B3
:100A3000010105510411D8B420EF05F022EF05F0B3
:100A400071EF05F001010A6F010E01010101066F4E
:100A500001010A5135EF05F00101D8900101043779
:100A60000101053701010101062B0101010105AF5B
:100A70003CEF05F03EEF05F02CEF05F00101D890BA
:100A80000101083701010937010101010451010188
:100A90000101025D0101010105510101010103593B
:100AA000D8A055EF05F057EF05F066EF05F001010E
:100AB0000101045101010101025F01010101055120
:100AC00001010101035B0101010108810101D890CD
:100AD000010105330101043301010101062F3EEF3D
:100AE00005F0010101010751D8B479EF05F07BEF62
:100AF00005F082EF05F001010101086D0101091FF8
:100B0000D8B0092B08C102F109C103F188EF05F043
:100B100012000101086F000E01010101066F0101C1
:100B200008510101010103AF98EF05F09AEF05F0BC
:100B3000A9EF05F001010101026D0101031FD8B009
:100B4000032B0101086F010E01010101066F010174
:100B500008510101010105AFB0EF05F0B2EF05F05A
:100B6000B9EF05F001010101046D0101051FD8B0C5
:100B7000052B0101010105510411D8B4C2EF05F0A4
:100B8000C4EF05F00AEF06F00101086F010E010144
:100B90000101076F01010851D7EF05F00101D8905D
:100BA000010104370101053701010101072B010192
:100BB000010105AFDEEF05F0E0EF05F0CEEF05F047
:100BC00001010101045101010101025D0101010165
:100BD0000551010101010359D8A0F1EF05F0F3EF30
:100BE00005F0FFEF05F001010101045101010101D0
:100BF000025F01010101055101010101035B0101D6
:100C0000D890010105330101043301010101072FCF
:100C1000E0EF05F0010101010651D8B412EF06F032
:100C200014EF06F01BEF06F001010101026D010156
:100C3000031FD8B0032B02C102F103C103F121EF5E
:100C400006F012000101026F010E01010101006FA7
:100C5000010102510101026F8F0ECD6E010102519F
:100C6000300ECF6E000ECE6E9F809E909D80D59AE6
:100C7000D596D584D592D580D58C000ED66EF194BC
:100C8000F28AD58E0101026F000E166E010102512B
:100C90000101026F000E01010101016F010102510A
:100CA000000E01010101016558EF06F05AEF06F050
:100CB0005CEF06F0ABEF06F0010101010151040DFC
:100CC000F3CF02F1030E01010227000E01010225FC
:100CD000E96EEA6A000EEA22000EEF6E01010101E0
:100CE0000151040D000EF324E96EEA6A000EEA22B7
:100CF000160EEF6E010101010151040DF3CF02F157
:100D0000010E01010227000E01010225E96EEA6AC7
:100D1000000EEA22000EEF6E010101010151040DE7
:100D2000F3CF02F1020E01010227000E010102259C
:100D3000E96EEA6A000EEA22000EEF6E010101017F
:100D4000012B000E010101010165A9EF06F0ABEFD7
:100D500006F05CEF06F0ADEF06F012000101206F27
:100D6000010E010101011E6F010120510101206FDF
:100D7000000E010101011F6F01012051020E01014E
:100D800001011F65C6EF06F0C8EF06F0CAEF06F0D6
:100D900037EF07F0010101011F51070DF3CF20F1DB
:100DA000060E01012027170E01012025E96EEA6ACF
:100DB000000EEA22020EEF62E0EF06F0E2EF06F02C
:100DC0002AEF07F0010101011F51070DF3CF20F1B8
:100DD000040E01012027170E01012025E96EEA6AA1
:100DE000000EEA22010101011D51EE26000EED2246
:100DF000010101011F51070DF3CF20F1020E010186
:100E00002027170E01012025E96EEA6A000EEA226A
:100E1000010101011F51070DF3CF21F1040E010162
:100E20002127170E01012125E16EE26A000EE22260
:100E3000E652EE52ED50E55C02E1EF50E75CD8A0DF
:100E400024EF07F026EF07F02AEF07F01FC122F189
:100E50006CEC0AF0010101011F2B020E01010101DE
:100E60001F6535EF07F037EF07F0CAEF06F039EFEF
:100E700007F012000101036F010E01010101026F71
:100E800001010351116647EF07F049EF07F09DEFAD
:100E900007F00CB04EEF07F050EF07F05FEF07F0F0
:100EA000D8900D300101046F0C300101036F010176
:100EB00003A15DEF07F05FEF07F09BEF07F0010183
:100EC000036F000E146E010103510101036F000E48
:100ED0000F6E010103510101036F020E2D6E01011E
:100EE00003510101036F000E136E01010351010153
:100EF000036F000E106E010103510101036F020E1A
:100F00002E6E010103510101036F000E156E0101E8
:100F100003510101036F000E126E01010351010123
:100F2000036F020E2C6E010103510101036F010ECC
:100F3000116E01010351B2EF07F0A9EF07F019ECB0
:100F400003F0B2EF07F0C4EC0AF0B2EF07F0B2EF33
:100F500007F01150010AF3E0030AF5E0010AF7E097
:100F6000A7EF07F0B4EF07F01200020E0101010134
:100F70003425E96E000E010101013521EA6EEF2AE8
:100F80003C0EEF62C6EF07F0C8EF07F025EF08F060
:100F9000020E010101013425E96E000E010101017B
:100FA0003521EA6E000EEF6E010E010101013425BC
:100FB000E96E000E010101013521EA6EEF2A3C0EB7
:100FC000EF62E5EF07F0E7EF07F025EF08F0010E1D
:100FD000010101013425E96E000E010101013521F5
:100FE000EA6E000EEF6E180E34C1E9FF35C1EAFF5C
:100FF000EF2AEF62FEEF07F000EF08F025EF08F0B0
:1010000034C1E9FF35C1EAFF000EEF6E030E0101A6
:1010100001013425E96E000E010101013521EA6E5E
:10102000EF2A070EEF6217EF08F019EF08F025EF2F
:1010300008F0030E010101013425E96E000E0101E3
:1010400001013521EA6E000EEF6E12000101016F01
:10105000000E01010101006F01010151020E0101A9
:101060000101006536EF08F038EF08F03AEF08F0BC
:101070007EEF08F0010101010051070DF3CF01F1EE
:10108000060E01010127170E01010125E96EEA6A2A
:10109000000EEA22EF50D8A450EF08F052EF08F00B
:1010A00071EF08F000C102F17FEC0AF001010101CB
:1010B0000051070D170EF324E96EEA6A000EEA22CA
:1010C00002D86DEF08F00500FA6EEE50FD6EEE509E
:1010D000FE6EF850FF6EFA50120000C102F118ECDB
:1010E0000AF001010101002B020E0101010100655E
:1010F0007CEF08F07EEF08F03AEF08F080EF08F0A0
:1011000012000101016F010E01010101006F0101D7
:1011100001510A0E01010101046F000E0101056F6A
:10112000010100C002F101010101036BDCEC04F0DC
:10113000010101010251046E0A0E01010101046F57
:10114000000E0101056F010100C002F10101010162
:10115000036B89EC05F0010101010251066E0A0ED4
:1011600001010101046F000E0101056F010101C0C1
:1011700002F101010101036BDCEC04F0010101014A
:101180000251086E0A0E01010101046F000E0101F7
:10119000056F010101C002F101010101036B89EC3E
:1011A00005F00101010102510A6E0250010B076EA8
:1011B000DAEF08F01200FACF0FF1FBCF10F1E9CF10
:1011C00011F1EACF12F1E1CF13F1E2CF14F1D9CF4F
:1011D00015F1DACF16F1F3CF17F1F4CF18F1F6CFFE
:1011E00019F1F7CF1AF1F8CF1BF1F5CF1CF1F2A4EA
:1011F000FCEF08F0FEEF08F00BEF09F0F294000EA0
:10120000D66E01010B6F010E010101011D6F01017D
:101210000B51AEEC06F01CC1F5FF1BC1F8FF1AC163
:10122000F7FF19C1F6FF18C1F4FF17C1F3FF16C18C
:10123000DAFF15C1D9FF14C1E2FF13C1E1FF12C1EA
:10124000EAFF11C1E9FF10C1FBFF0FC1FAFF0EC198
:10125000E0FF0DC1E8FF0CC1D8FF10000101036FD2
:10126000010E01010101026F010103510101036F30
:10127000040E01010101046F01010351B8EC09F0F2
:101280000E50020DF3CF03F1010E01010327040EEE
:1012900001010325E96EEA6A000EEA22EF5001011E
:1012A0000101056F0E50020D040EF324E96EEA6A87
:1012B000000EEA22EF5001010101046F10EC04F06E
:1012C0000EC004F1B8EC09F00E2A030E0E646BEFA9
:1012D00009F06DEF09F073EF09F00101036F000EE3
:1012E0000E6E0101035175EF09F012000600EACFFE
:1012F00027F1E1CF28F1E2CF29F1D9CF2AF1DACFD6
:101300002BF1F3CF2CF1F4CF2DF1F6CF2EF1F7CF57
:101310002FF1F8CF30F1F5CF31F19EA092EF09F027
:1013200094EF09F09BEF09F09E90300ECF6E000E07
:10133000CE6E58EC0AF031C1F5FF30C1F8FF2FC175
:10134000F7FF2EC1F6FF2DC1F4FF2CC1F3FF2BC117
:10135000DAFF2AC1D9FF29C1E2FF28C1E1FF27C175
:10136000EAFF26C1E9FF25C1FBFF24C1FAFF1100F6
:10137000010101010451D8B4C0EF09F0C3EF09F035
:101380008288C4EF09F08298010101010405D8B4F4
:10139000CCEF09F0CFEF09F0828AD0EF09F0829A02
:1013A000010101010451020AD8B4D9EF09F0DCEFC0
:1013B00009F08284DDEF09F08294010101010451FA
:1013C000030AD8B4E6EF09F0E9EF09F08286EAEF04
:1013D00009F0829612000101016F010E0101010165
:1013E000006F01010151000E956E949494969498AB
:1013F000949A0101016F040E01010101046F0101C2
:101400000151B8EC09F00101016F000E0101010169
:10141000056F010101510101026F170E0101010168
:10142000046F0101025110EC04F017EF0AF01200F2
:10143000010101010251070DF3CF03F1060E010175
:101440000327170E01010325E96EEA6A000EEA225E
:10145000020EEF6E010101010251070DF3CF03F1FE
:10146000040E01010327170E01010325E96EEA6A44
:10147000000EEA22000EEE6E000EED6E120022EC5F
:1014800006F0EBEC09F0AEEC0AF092EC0AF0A3ECFB
:101490000AF0D08EF28CF28E000E956E000E836EE6
:1014A00026EC08F081EC08F050EF0AF014EF00F0A1
:1014B0000101336F010E01010101326F010133514E
:1014C000000E01010101346F000E0101356FB5EC12
:1014D00007F06BEF0AF01200010101012251070D24
:1014E000F3CF23F1060E01012327170E0101232557
:1014F000E96EEA6A000EEA22000EEF6E12000101A8
:1015000001010251070DF3CF03F1060E010103277C
:10151000170E01010325E96EEA6A000EEA22010EA8
:10152000EF6E12000101016F010E01010101006F58
:10153000010101510101016F000E116E0101015104
:10154000A2EF0AF012000101016F010E0101010179
:10155000006F01010151ADEF0AF012000101016FAE
:10156000010E01010101006F01010151B8EF0AF004
:101570001200020E0C6E000E0D6E12002EEC09F021
:0A15800012003AEC07F0120012000E
:00000001FF
