:0400000014EF00F009
:10000800FACF24F1FBCF25F1E9CF26F103ED08F073
:10001800D8CF0CF1E8CF0DF1E0CF0EF168EF07F083
:1000280000EE0EF01A0EF66E060EF76E10EE15F0D4
:100038002FEC00F000EE00F010EE0EF028EC00F0CF
:10004800000EF86ECCEF08F0EE6AE550E150FCE1E6
:10005800E250FAE112000900F5CFEEFFE550E15059
:08006800FAE1E250F8E1120098
:10060000003F065B4F666D7D077F6F777C395E79B3
:100610007101020408102040000066120100000071
:10062000026E1264000000026C12E8030000020077
:10063000170E01010101046520EF03F022EF03F022
:100640002AEF03F00101066F170E01010101046F8B
:1006500001010651010E010101010425F66EF76A40
:10066000060EF7220800F5CF06F101010631D8A0E9
:1006700001D08384D8B001D08394010E010101011F
:100680000425F66EF76A060EF7220800F5CF06F18C
:10069000D8900101063301010631D8A001D083862C
:1006A000D8B001D08396010E010101010425F66E38
:1006B000F76A060EF7220800F5CF06F1D89001017F
:1006C0000633D8900101063301010631D8A001D0CC
:1006D000838AD8B001D0839A010E0101010104255B
:1006E000F66EF76A060EF7220800F5CF06F1D890ED
:1006F00001010633D89001010633D8900101063379
:1007000001010631D8A001D0838CD8B001D0839CE0
:10071000010E010101010425F66EF76A060EF722AB
:100720000800F5CF06F10101063B0F0E0617010187
:100730000631D8A001D0838ED8B001D0839E010E9F
:10074000010101010425F66EF76A060EF722080082
:10075000F5CF06F1050E0101076FD89001010633B0
:100760000101072FADEF03F001010631D8A001D040
:100770008382D8B001D08392010E010101010425CA
:10078000F66EF76A060EF7220800F5CF06F1060EA0
:100790000101076FD890010106330101072FCAEF4D
:1007A00003F001010631D8A001D08380D8B001D078
:1007B00083900101010105A101D08388010101019C
:1007C00005B101D08398120001010A6F000E0101EA
:1007D0000101076F01010A510101010105AFF3EFAA
:1007E00003F0F5EF03F004EF04F001010101046DE3
:1007F0000101051FD8B0052B01010A6F010E01018F
:100800000101076F01010A510101010103AF0BEF63
:1008100004F00DEF04F018EF04F001010101026D86
:100820000101031FD8B0032B010E01010101071BB9
:10083000000E01010101086F000E0101096F0101A5
:10084000010105510411D8B428EF04F02AEF04F097
:1008500079EF04F001010A6F010E01010101066F39
:1008600001010A513DEF04F00101D8900101043764
:100870000101053701010101062B0101010105AF4D
:1008800044EF04F046EF04F034EF04F00101D89097
:10089000010108370101093701010101045101017A
:1008A0000101025D0101010105510101010103592D
:1008B000D8A05DEF04F05FEF04F06EEF04F00101EB
:1008C0000101045101010101025F01010101055112
:1008D00001010101035B0101010108810101D890BF
:1008E000010105330101043301010101062F46EF27
:1008F00004F0010101010751D8B481EF04F083EF46
:1009000004F08AEF04F001010101086D0101091FE3
:10091000D8B0092B08C102F109C103F190EF04F02E
:1009200012000101086F000E01010101066F0101B3
:1009300008510101010103AFA0EF04F0A2EF04F0A0
:10094000B1EF04F001010101026D0101031FD8B0F4
:10095000032B0101086F010E01010101066F010166
:1009600008510101010105AFB8EF04F0BAEF04F03E
:10097000C1EF04F001010101046D0101051FD8B0B0
:10098000052B0101010105510411D8B4CAEF04F08F
:10099000CCEF04F012EF05F00101086F010E010128
:1009A0000101076F01010851DFEF04F00101D89048
:1009B000010104370101053701010101072B010184
:1009C000010105AFE6EF04F0E8EF04F0D6EF04F024
:1009D00001010101045101010101025D0101010157
:1009E0000551010101010359D8A0F9EF04F0FBEF13
:1009F00004F007EF05F001010101045101010101BB
:100A0000025F01010101055101010101035B0101C7
:100A1000D890010105330101043301010101072FC1
:100A2000E8EF04F0010101010651D8B41AEF05F016
:100A30001CEF05F023EF05F001010101026D01013A
:100A4000031FD8B0032B02C102F103C103F129EF48
:100A500005F012000101206F010E010101011E6F5E
:100A6000010120510101206F000E010101011F6FE2
:100A700001012051020E010101011F6542EF05F045
:100A800044EF05F046EF05F0B3EF05F00101010179
:100A90001F51070DF3CF20F1060E010120270E0E86
:100AA00001012025E96EEA6A000EEA22020EEF62D9
:100AB0005CEF05F05EEF05F0A6EF05F00101010126
:100AC0001F51070DF3CF20F1040E010120270E0E58
:100AD00001012025E96EEA6A000EEA220101010106
:100AE0001D51EE26000EED22010101011F51070DDF
:100AF000F3CF20F1020E010120270E0E0101202567
:100B0000E96EEA6A000EEA22010101011F51070D98
:100B1000F3CF21F1040E010121270E0E0101212541
:100B2000E16EE26A000EE222E652EE52ED50E55C22
:100B300002E1EF50E75CD8A0A0EF05F0A2EF05F0CE
:100B4000A6EF05F01FC122F10AEC09F00101010135
:100B50001F2B020E010101011F65B1EF05F0B3EF7C
:100B600005F046EF05F0B5EF05F012000101026F48
:100B7000010E01010101006F010102510101026F2B
:100B80008F0ECD6E01010251300ECF6E000ECE6E73
:100B90009F809E909D80D59AD596D584D592D580FC
:100BA000D58C000ED66EF194F28AD58E0101026FBB
:100BB000000E0D6E010102510101026F000E0101D4
:100BC0000101016F01010251000E010101010165E6
:100BD000ECEF05F0EEEF05F0F0EF05F03FEF06F07B
:100BE000010101010151040DF3CF02F1030E0101D6
:100BF0000227080E01010225E96EEA6A000EEA22C8
:100C0000000EEF6E010101010151040D080EF324E5
:100C1000E96EEA6A000EEA22160EEF6E010101018A
:100C20000151040DF3CF02F1010E01010227080E5C
:100C300001010225E96EEA6A000EEA22000EEF6E5B
:100C4000010101010151040DF3CF02F1020E010176
:100C50000227080E01010225E96EEA6A000EEA2267
:100C6000000EEF6E01010101012B000E01010101D7
:100C700001653DEF06F03FEF06F0F0EF05F041EFC4
:100C800006F01200020E010101013425E96E000E8A
:100C9000010101013521EA6EEF2A3C0EEF6253EFAC
:100CA00006F055EF06F0B2EF06F0020E0101010169
:100CB0003425E96E000E010101013521EA6E000EB6
:100CC000EF6E010E010101013425E96E000E0101F4
:100CD00001013521EA6EEF2A3C0EEF6272EF06F059
:100CE00074EF06F0B2EF06F0010E010101013425A8
:100CF000E96E000E010101013521EA6E000EEF6E72
:100D0000180E34C1E9FF35C1EAFFEF2AEF628BEF1D
:100D100006F08DEF06F0B2EF06F034C1E9FF35C101
:100D2000EAFF000EEF6E030E010101013425E96EAA
:100D3000000E010101013521EA6EEF2A070EEF6274
:100D4000A4EF06F0A6EF06F0B2EF06F0030E0101E5
:100D500001013425E96E000E010101013521EA6E21
:100D6000000EEF6E12000101016F000E0101010182
:100D7000006F01010151020E010101010065C3EF85
:100D800006F0C5EF06F0C7EF06F00BEF07F0010124
:100D900001010051070DF3CF01F1060E01010127FA
:100DA0000E0E01010125E96EEA6A000EEA22EF50FB
:100DB000D8A4DDEF06F0DFEF06F0FEEF06F000C18D
:100DC00002F1F7EC08F0010101010051070D0E0ED0
:100DD000F324E96EEA6A000EEA2202D8FAEF06F07E
:100DE0000500FA6EEE50FD6EEE50FE6EF850FF6E8E
:100DF000FA50120000C102F1A5EC08F00101010156
:100E0000002B020E01010101006509EF07F00BEF55
:100E100007F0C7EF06F00DEF07F012000101016FB8
:100E2000010E01010101006F010101510A0E0101D2
:100E30000101046F000E0101056F010108C002F1FC
:100E400001010101036BE4EC03F001010101025116
:100E5000006E0A0E01010101046F000E0101056F11
:100E6000010108C002F101010101036B91EC04F0E2
:100E7000010101010251026E0A0E01010101046F1C
:100E8000000E0101056F010109C002F1010101011C
:100E9000036BE4EC03F0010101010251046E0A0E40
:100EA00001010101046F000E0101056F010109C07C
:100EB00002F101010101036B91EC04F00101010158
:100EC0000251066E0A50010B036E67EF07F0120025
:100ED000FACF0FF1FBCF10F1E9CF11F1EACF12F108
:100EE000E1CF13F1E2CF14F1D9CF15F1DACF16F13A
:100EF000F3CF17F1F4CF18F1F6CF19F1F7CF1AF1BC
:100F0000F8CF1BF1F5CF1CF1F2A489EF07F08BEFBE
:100F100007F098EF07F0F294000ED66E01010B6F08
:100F2000010E010101011D6F01010B512AEC05F0B9
:100F30001CC1F5FF1BC1F8FF1AC1F7FF19C1F6FF6D
:100F400018C1F4FF17C1F3FF16C1DAFF15C1D9FFAD
:100F500014C1E2FF13C1E1FF12C1EAFF11C1E9FFB1
:100F600010C1FBFF0FC1FAFF0EC1E0FF0DC1E8FF8A
:100F70000CC1D8FF10000101036F010E0101010136
:100F8000026F010103510101036F040E0101010110
:100F9000046F0101035145EC08F00C50020DF3CF32
:100FA00003F1010E01010327000E01010325E96E83
:100FB000EA6A000EEA22EF5001010101056F0C50B0
:100FC000020D000EF324E96EEA6A000EEA22EF50E9
:100FD00001010101046F18EC03F00CC004F145ECB1
:100FE00008F00C2A030E0C64F8EF07F0FAEF07F094
:100FF00000EF08F00101036F000E0C6E01010351B8
:1010000002EF08F012000600EACF27F1E1CF28F145
:10101000E2CF29F1D9CF2AF1DACF2BF1F3CF2CF19E
:10102000F4CF2DF1F6CF2EF1F7CF2FF1F8CF30F12D
:10103000F5CF31F19EA01FEF08F021EF08F028EF67
:1010400008F09E90300ECF6E000ECE6EE3EC08F0EE
:1010500031C1F5FF30C1F8FF2FC1F7FF2EC1F6FFF8
:101060002DC1F4FF2CC1F3FF2BC1DAFF2AC1D9FF38
:1010700029C1E2FF28C1E1FF27C1EAFF26C1E9FF3C
:1010800025C1FBFF24C1FAFF110001010101045138
:10109000D8B44DEF08F050EF08F0828851EF08F017
:1010A0008298010101010405D8B459EF08F05CEF02
:1010B00008F0828A5DEF08F0829A01010101045173
:1010C000020AD8B466EF08F069EF08F082846AEF8C
:1010D00008F08294010101010451030AD8B473EFAE
:1010E00008F076EF08F0828677EF08F0829612001B
:1010F0000101016F010E01010101006F01010151A8
:10110000000E956E949494969498949A0101016FB0
:10111000040E01010101046F0101015145EC08F0C9
:101120000101016F000E01010101056F0101015173
:101130000101026F170E01010101046F010102514B
:1011400018EC03F0A4EF08F01200010101010251B4
:10115000070DF3CF03F1060E010103270E0E010167
:101160000325E96EEA6A000EEA22020EEF6E010123
:1011700001010251070DF3CF03F1040E0101032712
:101180000E0E01010325E96EEA6A000EEA22000E46
:10119000EE6E000EED6E1200B6EC05F078EC08F085
:1011A00028EC09F01DEC09F0D08EF28CF28E000EC6
:1011B000956E000E836EB3EC06F00EEC07F0DBEFDD
:1011C00008F014EF00F00101336F010E010101017D
:1011D000326F01013351080E01010101346F000E1D
:1011E0000101356F42EC06F0F6EF08F01200010144
:1011F00001010251070DF3CF03F1060E0101032790
:101200000E0E01010325E96EEA6A000EEA22010EC4
:10121000EF6E1200010101012251070DF3CF23F1FE
:10122000060E010123270E0E01012325E96EEA6A4D
:10123000000EEA22000EEF6E12000101016F010E96
:1012400001010101006F0101015127EF09F01200B6
:101250000101016F010E01010101006F0101015146
:1012600032EF09F01200BBEC07F01200120012007E
:00000001FF
