:0400000014EF00F009
:10000800FACF0BF1FBCF0CF1E9CF0DF181ED08F040
:10001800D8CF22F1E8CF23F1E0CF24F1A4EF07F005
:1000280000EE12F01A0EF66E060EF76E10EE1CF0C9
:100038002FEC00F000EE00F010EE12F028EC00F0CB
:10004800000EF86E4FEF0AF0EE6AE550E150FCE161
:10005800E250FAE112000900F5CFEEFFE550E15059
:08006800FAE1E250F8E1120098
:10060000003F065B4F666D7D077F6F777C395E79B3
:1006100071010204081020400000CA15010000000A
:1006200002D0156400000002C015E803000002BA01
:1006300012D0146414FF170E01010101046523EFA9
:1006400003F025EF03F02DEF03F00101066F170E05
:1006500001010101046F01010651010E01010101B7
:100660000425F66EF76A060EF7220800F5CF06F1AC
:1006700001010631D8A001D08384D8B001D0839481
:10068000010E010101010425F66EF76A060EF7223C
:100690000800F5CF06F1D8900101063301010631BB
:1006A000D8A001D08386D8B001D08396010E010175
:1006B00001010425F66EF76A060EF7220800F5CF51
:1006C00006F1D89001010633D890010106330101EB
:1006D0000631D8A001D0838AD8B001D0839A010E08
:1006E000010101010425F66EF76A060EF7220800E3
:1006F000F5CF06F1D89001010633D89001010633F9
:10070000D8900101063301010631D8A001D0838CB5
:10071000D8B001D0839C010E010101010425F66EC1
:10072000F76A060EF7220800F5CF06F10101063B35
:100730000F0E061701010631D8A001D0838ED8B064
:1007400001D0839E010E010101010425F66EF76AB6
:10075000060EF7220800F5CF06F1050E0101076F1E
:10076000D890010106330101072FB0EF03F001011A
:100770000631D8A001D08382D8B001D08392010E77
:10078000010101010425F66EF76A060EF722080042
:10079000F5CF06F1060E0101076FD890010106336F
:1007A0000101072FCDEF03F001010631D8A001D0E0
:1007B0008380D8B001D083900101010105A101D04F
:1007C00083880101010105B101D083981200010164
:1007D000046F010E01010101026F010104510101C9
:1007E000046F000E01010101036F01010451000EAD
:1007F000010101010365FFEF03F001EF04F003EFD6
:1008000004F069EF04F02D28D8A409EF04F00BEFF1
:1008100004F02CEF04F0010101010351060D270E35
:10082000F324E96EEA6A000EEA2202D822EF04F00D
:100830000500FA6EEE50FD6EEE50FE6EF850FF6E43
:10084000FA5012000009D8B428EF04F02AEF04F09F
:100850002CEF04F003C12DF02D50010101010363C1
:1008600034EF04F036EF04F05CEF04F00101010115
:100870000351060DF3CF04F1040E01010427270EE6
:1008800001010425E96EEA6A000EEA2202D853EF5C
:1008900004F00500FA6EEE50FD6EEE50FE6EF8505C
:1008A000FF6EFA5012000009D8B459EF04F05BEF64
:1008B00004F05CEF04F02D6801010101032B000E30
:1008C00001010101036567EF04F069EF04F003EF34
:1008D00004F02D28D8B46FEF04F071EF04F094EF1A
:1008E00004F0010E2D6077EF04F079EF04F094EF3F
:1008F00004F02D50060DF3CF04F1020E0101042780
:10090000270E01010425E96EEA6A000EEA2202D8E8
:1009100094EF04F00500FA6EEE50FD6EEE50FE6EA0
:10092000F850FF6EFA50120096EF04F01200010129
:100930000A6F000E01010101076F01010A51010157
:10094000010105AFA6EF04F0A8EF04F0B7EF04F043
:1009500001010101046D0101051FD8B0052B010142
:100960000A6F010E01010101076F01010A51010126
:10097000010103AFBEEF04F0C0EF04F0CBEF04F0D1
:1009800001010101026D0101031FD8B0032B010E0B
:1009900001010101071B000E01010101086F000E9A
:1009A0000101096F0101010105510411D8B4DBEF08
:1009B00004F0DDEF04F02CEF05F001010A6F010EE9
:1009C00001010101066F01010A51F0EF04F001017C
:1009D000D890010104370101053701010101062BFF
:1009E0000101010105AFF7EF04F0F9EF04F0E7EFC3
:1009F00004F00101D8900101083701010937010114
:100A00000101045101010101025D010101010551D2
:100A1000010101010359D8A010EF05F012EF05F014
:100A200021EF05F001010101045101010101025F03
:100A300001010101055101010101035B01010101F6
:100A400008810101D890010105330101043301013E
:100A50000101062FF9EF04F0010101010751D8B49B
:100A600034EF05F036EF05F03DEF05F0010101012F
:100A7000086D0101091FD8B0092B08C102F109C195
:100A800003F143EF05F012000101086F000E0101B0
:100A90000101066F010108510101010103AF53EF8C
:100AA00005F055EF05F064EF05F001010101026D5D
:100AB0000101031FD8B0032B0101086F010E0101D2
:100AC0000101066F010108510101010105AF6BEF42
:100AD00005F06DEF05F074EF05F001010101046D03
:100AE0000101051FD8B0052B0101010105510411B9
:100AF000D8B47DEF05F07FEF05F0C5EF05F00101FB
:100B0000086F010E01010101076F0101085192EF09
:100B100005F00101D89001010437010105370101F9
:100B20000101072B0101010105AF99EF05F09BEFD2
:100B300005F089EF05F001010101045101010101F6
:100B4000025D010101010551010101010359D8A014
:100B5000ACEF05F0AEEF05F0BAEF05F001010101D1
:100B6000045101010101025F01010101055101016F
:100B70000101035B0101D890010105330101043338
:100B800001010101072F9BEF05F001010101065151
:100B9000D8B4CDEF05F0CFEF05F0D6EF05F00101A9
:100BA0000101026D0101031FD8B0032B02C102F144
:100BB00003C103F1DCEF05F012000101366F010EF5
:100BC00001010101346F010136510101366F000E40
:100BD00001010101356F01013651020E01010101D0
:100BE0003565F5EF05F0F7EF05F0F9EF05F066EF85
:100BF00006F0010101013551070DF3CF36F1060E64
:100C000001013627120E01013625E96EEA6A000E4F
:100C1000EA22020EEF620FEF06F011EF06F059EF35
:100C200006F0010101013551070DF3CF36F1040E35
:100C300001013627120E01013625E96EEA6A000E1F
:100C4000EA22010101013351EE26000EED220101DD
:100C500001013551070DF3CF36F1020E01013627A0
:100C6000120E01013625E96EEA6A000EEA22010140
:100C700001013551070DF3CF37F1040E010137277C
:100C8000120E01013725E16EE26A000EE222E65201
:100C9000EE52ED50E55C02E1EF50E75CD8A053EF77
:100CA00006F055EF06F059EF06F035C138F191EC3A
:100CB0000AF001010101352B020E01010101356528
:100CC00064EF06F066EF06F0F9EF05F068EF06F066
:100CD00012000101026F010E01010101006F01010B
:100CE00002510101026F8F0ECD6E01010251300ED3
:100CF000CF6E000ECE6E9F809E909D80D59AD59629
:100D0000D584D592D580D58C000ED66EF194F28A1A
:100D1000D58E0101026F000E01010101016F010179
:100D20000251000E01010101016599EF06F09BEFF0
:100D300006F09DEF06F0ECEF06F001010101015114
:100D4000040DF3CF02F1030E01010227080E010189
:100D50000225E96EEA6A000EEA22000EEF6E01013A
:100D600001010151040D080EF324E96EEA6A000E38
:100D7000EA22000EEF6E010101010151040DF3CFD3
:100D800002F1010E01010227080E01010225E96EA0
:100D9000EA6A000EEA22000EEF6E01010101015124
:100DA000040DF3CF02F1020E01010227080E01012A
:100DB0000225E96EEA6A000EEA22000EEF6E0101DA
:100DC0000101012B000E010101010165EAEF06F0AE
:100DD000ECEF06F09DEF06F0EEEF06F012000101D9
:100DE000016F000E01010101006F01010151020EAE
:100DF000010101010065FFEF06F001EF07F003EFCD
:100E000007F047EF07F0010101010051070DF3CF93
:100E100001F1060E01010127120E01010125E96E03
:100E2000EA6A000EEA22EF50D8A419EF07F01BEF90
:100E300007F03AEF07F000C102F1A4EC0AF001015B
:100E400001010051070D120EF324E96EEA6A000E4B
:100E5000EA2202D836EF07F00500FA6EEE50FD6E7A
:100E6000EE50FE6EF850FF6EFA50120000C102F113
:100E70000BEC0AF001010101002B020E010101013E
:100E8000006545EF07F047EF07F003EF07F049EF84
:100E900007F012000101016F010E01010101006F55
:100EA000010101510A0E01010101046F000E01014F
:100EB000056F010108C002F101010101036B97EC0C
:100EC00004F0010101010251006E0A0E010101014D
:100ED000046F000E0101056F010108C002F101015C
:100EE0000101036B44EC05F0010101010251026EA6
:100EF0000A0E01010101046F000E0101056F0101DD
:100F000009C002F101010101036B97EC04F001013A
:100F100001010251046E0A0E01010101046F000E6D
:100F20000101056F010109C002F101010101036B1B
:100F300044EC05F0010101010251066E0A50010B5B
:100F4000036EA3EF07F01200FACF25F1FBCF26F1D5
:100F5000E9CF27F1EACF28F1E1CF29F1E2CF2AF159
:100F6000D9CF2BF1DACF2CF1F3CF2DF1F4CF2EF135
:100F7000F6CF2FF1F7CF30F1F8CF31F1F5CF32F1D5
:100F8000F2A4C5EF07F0C7EF07F0D4EF07F0F29433
:100F9000000ED66E0101216F010E01010101336FB8
:100FA00001012151DDEC05F032C1F5FF31C1F8FF3F
:100FB00030C1F7FF2FC1F6FF2EC1F4FF2DC1F3FFA3
:100FC0002CC1DAFF2BC1D9FF2AC1E2FF29C1E1FF01
:100FD00028C1EAFF27C1E9FF26C1FBFF25C1FAFFAF
:100FE00024C1E0FF23C1E8FF22C1D8FF10000101A6
:100FF000036F010E01010101026F010103510101A3
:10100000036F040E01010101046F01010351F8ECAB
:1010100008F00C50020DF3CF03F1010E010103277C
:10102000000E01010325E96EEA6A000EEA22EF5084
:1010300001010101056F0C50020D000EF324E96E51
:10104000EA6A000EEA22EF5001010101046F1BEC75
:1010500003F00CC004F1F8EC08F00C2A030E0C6449
:1010600034EF08F036EF08F03CEF08F00101036FB1
:10107000000E0C6E010103513EEF08F01200020E4B
:10108000010101011B25E96E000E010101011C2176
:10109000EA6EEF2A3C0EEF6250EF08F052EF08F0D4
:1010A00080EF08F0020E010101011B25E96E000E20
:1010B000010101011C21EA6E000EEF6E1BC11DF142
:1010C0001CC11EF1C3EC08F00009D8B46AEF08F0A7
:1010D0006CEF08F080EF08F01BC11DF11CC11EF180
:1010E000E2EC09F00009D8B478EF08F07AEF08F0E4
:1010F00080EF08F01BC11DF11CC11EF12BEC09F0A3
:1011000012000600EACF0EF1E1CF0FF1E2CF10F1AD
:10111000D9CF11F1DACF12F1F3CF13F1F4CF14F1EB
:10112000F6CF15F1F7CF16F1F8CF17F1F5CF18F18B
:101130009EA09DEF08F09FEF08F0A6EF08F09E90AC
:10114000300ECF6E000ECE6E7DEC0AF018C1F5FFAA
:1011500017C1F8FF16C1F7FF15C1F6FF14C1F4FF60
:1011600013C1F3FF12C1DAFF11C1D9FF10C1E2FFB1
:101170000FC1E1FF0EC1EAFF0DC1E9FF0CC1FBFF8A
:101180000BC1FAFF11000101206F000E01010101E6
:101190001F6F01012051010E010101011D25E96EA2
:1011A000000E010101011E21EA6EEF2A3C0EEF62E2
:1011B000DCEF08F0DEEF08F0F2EF08F0010E0101BD
:1011C00001011D25E96E000E010101011E21EA6EDB
:1011D000000EEF6E0101206F010E010101011F6F72
:1011E00001012051010101011F51F7EF08F0120028
:1011F000010101010451D8B400EF09F003EF09F037
:10120000828804EF09F08298010101010405D8B435
:101210000CEF09F00FEF09F0828A10EF09F0829AC3
:10122000010101010451020AD8B419EF09F01CEFC1
:1012300009F082841DEF09F082940101010104513B
:10124000030AD8B426EF09F029EF09F082862AEFC5
:1012500009F0829612000101206F000E01010101C8
:101260001F6F01012051030E010101011D25E96ECF
:10127000000E010101011E21EA6EEF2A070EEF6246
:1012800044EF09F046EF09F05AEF09F0030E0101AF
:1012900001011D25E96E000E010101011E21EA6E0A
:1012A000000EEF6E0101206F010E010101011F6FA1
:1012B000010120515CEF09F012000101066F000EE0
:1012C00001010101056F010106510D50020A0E10C6
:1012D000D8A46DEF09F06FEF09F086EF09F0106602
:1012E00074EF09F076EF09F086EF09F00101066F5F
:1012F000010E01010101056F010106510101066F97
:10130000010E106E01010651D9EC0AF00101010134
:1013100005518BEF09F012000101016F010E01016F
:101320000101006F01010151000E956E9494949695
:101330009498949A0101016F040E01010101046F58
:1013400001010151F8EC08F00101016F000E0101EB
:101350000101056F010101510101026F170E010129
:101360000101046F010102511BEC03F0B8EF09F019
:10137000120001010A6F000E01010101096F010154
:101380000A51180E07C1E9FF08C1EAFFEF2AEF6210
:10139000CCEF09F0CEEF09F0DCEF09F007C1E9FF6F
:1013A00008C1EAFF000EEF6E01010A6F010E010194
:1013B0000101096F01010A51010101010951E1EF28
:1013C00009F012000101206F000E010101011F6FE1
:1013D00001012051180E1DC1E9FF1EC1EAFFEF2ACD
:1013E000EF62F5EF09F0F7EF09F005EF0AF01DC124
:1013F000E9FF1EC1EAFF000EEF6E0101206F010E32
:10140000010101011F6F01012051010101011F5163
:101410000AEF0AF01200010101010251070DF3CF9A
:1014200003F1060E01010327120E01010325E96EE7
:10143000EA6A000EEA22020EEF6E0101010102517A
:10144000070DF3CF03F1040E01010327120E010172
:101450000325E96EEA6A000EEA22000EEE6E000E27
:10146000ED6E12000101066F000E01010101056F12
:10147000010106510F663FEF0AF041EF0AF049EF14
:101480000AF00101066F010E01010101056F010162
:1014900006510101010105514EEF0AF0120069ECFD
:1014A00006F08CEC09F0C3EC0AF0B7EC0AF0CEECD5
:1014B0000AF0D08EF28CF28E000E956E000E836EC6
:1014C000EFEC06F04AEC07F060EF0AF014EF00F0E2
:1014D0000101066F000E01010101056F01010651B6
:1014E0000F06080E01010101076F000E0101086FD0
:1014F000B9EC09F07CEF0AF0120001011A6F010E3D
:1015000001010101196F01011A51080E01010101C8
:101510001B6F000E01011C6F3FEC08F090EF0AF00A
:101520001200010101013851070DF3CF39F1060E08
:1015300001013927120E01013925E96EEA6A000E10
:10154000EA22000EEF6E1200010101010251070DA7
:10155000F3CF03F1060E01010327120E010103254B
:10156000E96EEA6A000EEA22010EEF6E1200010136
:10157000016F010E01010101006F010101512D6890
:10158000C2EF0AF012000101016F010E0101010119
:10159000006F01010151CDEF0AF012000101016F4E
:1015A000010E01010101006F01010151D8EF0AF0A4
:1015B00012000101076F0A0E0F6E010107511200A0
:1015C000020E0D6E000E0E6E1200F7EC07F0120008
:0615D000E7EC03F012003D
:00000001FF
