:0400000014EF00F009
:10000800FACF0BF1FBCF0CF1E9CF0DF1B8ED08F009
:10001800D8CF22F1E8CF23F1E0CF24F11DEF08F08B
:1000280000EE15F01E0EF66E060EF76E10EE23F0BB
:100038002FEC00F000EE00F010EE15F028EC00F0C8
:10004800000EF86E86EF0BF0EE6AE550E150FCE129
:10005800E250FAE112000900F5CFEEFFE550E15059
:08006800FAE1E250F8E1120098
:10060000003F065B4F666D7D077F6F777C395E79B3
:10061000710102040810204000041E0A00002A187C
:100620000500000002301814000000023618C8004F
:100630000000022018D007000002D00EF411C616E8
:10064000FF00170E01010101046529EF03F02BEFF4
:1006500003F033EF03F00101066F170E01010101F2
:10066000046F01010651010E010101010425F66E1E
:10067000F76A060EF7220800F5CF06F101010631F0
:10068000D8A001D08384D8B001D08394010E010199
:1006900001010425F66EF76A060EF7220800F5CF71
:1006A00006F1D8900101063301010631D8A001D02E
:1006B0008386D8B001D08396010E01010101042583
:1006C000F66EF76A060EF7220800F5CF06F1D8900D
:1006D00001010633D8900101063301010631D8A08B
:1006E00001D0838AD8B001D0839A010E01010101A3
:1006F0000425F66EF76A060EF7220800F5CF06F11C
:10070000D89001010633D89001010633D890010139
:10071000063301010631D8A001D0838CD8B001D0B6
:10072000839C010E010101010425F66EF76A060E95
:10073000F7220800F5CF06F10101063B0F0E061760
:1007400001010631D8A001D0838ED8B001D0839E9C
:10075000010E010101010425F66EF76A060EF7226B
:100760000800F5CF06F1050E0101076FD8900101D1
:1007700006330101072FB6EF03F001010631D8A0BF
:1007800001D08382D8B001D08392010E0101010112
:100790000425F66EF76A060EF7220800F5CF06F17B
:1007A000060E0101076FD890010106330101072FE2
:1007B000D3EF03F001010631D8A001D08380D8B077
:1007C00001D083900101010105A101D083880101BD
:1007D000010105B101D0839812000101046F010EDF
:1007E00001010101026F010104510101046F000EBA
:1007F00001010101036F01010451000E010101011A
:10080000036505EF04F007EF04F009EF04F06FEF64
:1008100004F03728D8A40FEF04F011EF04F032EF02
:1008200004F0010101010351060D310EF324E96EBC
:10083000EA6A000EEA2202D828EF04F00500FA6EF8
:10084000EE50FD6EEE50FE6EF850FF6EFA50120044
:100850000009D8B42EEF04F030EF04F032EF04F0CA
:1008600003C137F037500101010103633AEF04F08F
:100870003CEF04F062EF04F0010101010351060DA9
:10088000F3CF04F1040E01010427310E0101042508
:10089000E96EEA6A000EEA2202D859EF04F0050078
:1008A000FA6EEE50FD6EEE50FE6EF850FF6EFA508E
:1008B00012000009D8B45FEF04F061EF04F062EFBA
:1008C00004F0376801010101032B000E0101010151
:1008D00003656DEF04F06FEF04F009EF04F03728C3
:1008E000D8B475EF04F077EF04F09AEF04F0010E3E
:1008F00037607DEF04F07FEF04F09AEF04F037509B
:10090000060DF3CF04F1020E01010427310E01019F
:100910000425E96EEA6A000EEA2202D89AEF04F092
:100920000500FA6EEE50FD6EEE50FE6EF850FF6E52
:10093000FA5012009CEF04F0120001010A6F000E41
:1009400001010101076F01010A510101010105AF18
:10095000ACEF04F0AEEF04F0BDEF04F001010101D3
:10096000046D0101051FD8B0052B01010A6F010EAE
:1009700001010101076F01010A510101010103AFEA
:10098000C4EF04F0C6EF04F0D1EF04F0010101015F
:10099000026D0101031FD8B0032B010E01010101FB
:1009A000071B000E01010101086F000E0101096F14
:1009B0000101010105510411D8B4E1EF04F0E3EFA6
:1009C00004F032EF05F001010A6F010E010101018F
:1009D000066F01010A51F6EF04F00101D890010100
:1009E00004370101053701010101062B0101010155
:1009F00005AFFDEF04F0FFEF04F0EDEF04F00101AF
:100A0000D8900101083701010937010101010451A2
:100A100001010101025D0101010105510101010115
:100A20000359D8A016EF05F018EF05F027EF05F0F1
:100A300001010101045101010101025F01010101F4
:100A4000055101010101035B01010101088101015F
:100A5000D890010105330101043301010101062F82
:100A6000FFEF04F0010101010751D8B43AEF05F09E
:100A70003CEF05F043EF05F001010101086D0101B4
:100A8000091FD8B0092B08C102F109C103F149EFD0
:100A900005F012000101086F000E01010101066F4F
:100AA000010108510101010103AF59EF05F05BEFAE
:100AB00005F06AEF05F001010101026D0101031F5C
:100AC000D8B0032B0101086F010E01010101066F6F
:100AD000010108510101010105AF71EF05F073EF4C
:100AE00005F07AEF05F001010101046D0101051F18
:100AF000D8B0052B0101010105510411D8B483EFD1
:100B000005F085EF05F0CBEF05F00101086F010E50
:100B100001010101076F0101085198EF05F0010182
:100B2000D890010104370101053701010101072BAC
:100B30000101010105AF9FEF05F0A1EF05F08FEF77
:100B400005F001010101045101010101025D0101F2
:100B500001010551010101010359D8A0B2EF05F0CF
:100B6000B4EF05F0C0EF05F00101010104510101EE
:100B70000101025F01010101055101010101035B56
:100B80000101D89001010533010104330101010184
:100B9000072FA1EF05F0010101010651D8B4D3EFF1
:100BA00005F0D5EF05F0DCEF05F001010101026D64
:100BB0000101031FD8B0032B02C102F103C103F1ED
:100BC000E2EF05F012000101366F010E0101010193
:100BD000346F010136510101366F000E0101010130
:100BE000356F01013651190EF66E060EF76E0800CC
:100BF000F55001010101355DD8A001EF06F003EFCA
:100C000006F005EF06F078EF06F00101010135511D
:100C1000070DF3CF36F1060E01013627150E01013F
:100C20003625E96EEA6A000EEA22020EEF621BEF39
:100C300006F01DEF06F065EF06F0010101013551E8
:100C4000070DF3CF36F1040E01013627150E010111
:100C50003625E96EEA6A000EEA22010101013351EC
:100C6000EE26000EED22010101013551070DF3CFF3
:100C700036F1020E01013627150E01013625E96E07
:100C8000EA6A000EEA22010101013551070DF3CF96
:100C900037F1040E01013727150E01013725E16EEA
:100CA000E26A000EE222E652EE52ED50E55C02E10D
:100CB000EF50E75CD8A05FEF06F061EF06F065EF5C
:100CC00006F035C138F1DBEC0BF001010101352BE9
:100CD000190EF66E060EF76E0800F55001010101BF
:100CE000355DD8A076EF06F078EF06F005EF06F058
:100CF0007AEF06F012000101026F010E01010101FD
:100D0000006F010102510101026F8F0ECD6E0101D2
:100D10000251300ECF6E000ECE6E9F809E909D8051
:100D2000D59AD596D594D582D580D58C000ED66E21
:100D3000F194F28AD58E0101026F000E01010101CA
:100D4000016F01010251000E010101010165ABEFCC
:100D500006F0ADEF06F0AFEF06F0FEEF06F0010192
:100D600001010151040DF3CF02F1030E010102272D
:100D7000000E01010225E96EEA6A000EEA22000E69
:100D8000EF6E010101010151040D000EF324E96E23
:100D9000EA6A000EEA22000EEF6E01010101015124
:100DA000040DF3CF02F1010E01010227000E010133
:100DB0000225E96EEA6A000EEA22000EEF6E0101DA
:100DC00001010151040DF3CF02F1020E01010227CE
:100DD000000E01010225E96EEA6A000EEA22000E09
:100DE000EF6E01010101012B000E010101010165FE
:100DF000FCEF06F0FEEF06F0AFEF06F000EF07F0B5
:100E000012000101016F000E01010101006F0101DB
:100E10000151190EF66E060EF76E0800F55001012D
:100E20000101005DD8A017EF07F019EF07F01BEFE5
:100E300007F065EF07F0010101010051070DF3CF45
:100E400001F1060E01010127150E01010125E96ED0
:100E5000EA6A000EEA22EF50D8A431EF07F033EF30
:100E600007F052EF07F000C102F1C8EC0BF00101EE
:100E700001010051070D150EF324E96EEA6A000E18
:100E8000EA2202D84EEF07F00500FA6EEE50FD6E32
:100E9000EE50FE6EF850FF6EFA50120000C102F1E3
:100EA0003CEC0BF001010101002B190EF66E060E51
:100EB000F76E0800F55001010101005DD8A063EF55
:100EC00007F065EF07F01BEF07F067EF07F0120080
:100ED0000101066F000E01010101056F01010651BC
:100EE0000C50020A0D10D8B478EF07F07AEF07F033
:100EF00084EF07F00C50030A0D10D8A482EF07F01E
:100F000084EF07F0BDEF07F0136689EF07F08BEF72
:100F100007F0BDEF07F00101066F010E01010101AD
:100F2000056F010106510101066F010E136E0101EB
:100F300006519FEC0BF00C50020A0D10D8A4A3EF41
:100F400007F0A5EF07F0ADEF07F00101066F000E07
:100F5000126E01010651BDEF07F00C50030A0D108F
:100F6000D8A4B5EF07F0B7EF07F0BDEF07F0010128
:100F7000066F010E126E01010651010101010551BA
:100F8000C2EF07F012000101016F010E0101010122
:100F9000006F010101510A0E01010101046F000EF1
:100FA0000101056F010100C002F101010101036BA4
:100FB0009DEC04F0010101010251046E0A0E0101D1
:100FC0000101046F000E0101056F010100C002F173
:100FD00001010101036B4AEC05F00101010102511D
:100FE000066E0A0E01010101046F000E0101056F7A
:100FF000010101C002F101010101036B9DEC04F04C
:10100000010101010251086E0A0E01010101046F84
:10101000000E0101056F010101C002F10101010192
:10102000036B4AEC05F00101010102510A6E025006
:10103000010B076E1CEF08F01200FACF25F1FBCF71
:1010400026F1E9CF27F1EACF28F1E1CF29F1E2CF6C
:101050002AF1D9CF2BF1DACF2CF1F3CF2DF1F4CF48
:101060002EF1F6CF2FF1F7CF30F1F8CF31F1F5CFE8
:1010700032F1F2A43EEF08F040EF08F04DEF08F037
:10108000F294000ED66E0101216F010E01010101E3
:10109000336F01012151E3EC05F032C1F5FF31C19D
:1010A000F8FF30C1F7FF2FC1F6FF2EC1F4FF2DC1AD
:1010B000F3FF2CC1DAFF2BC1D9FF2AC1E2FF29C1FE
:1010C000E1FF28C1EAFF27C1E9FF26C1FBFF25C1D7
:1010D000FAFF24C1E0FF23C1E8FF22C1D8FF1000BE
:1010E0000101036F010E01010101026F01010351B2
:1010F0000101036F040E01010101046F010103519D
:1011000026EC0AF00E50020DF3CF03F1010E01019F
:101110000327040E01010325E96EEA6A000EEA22A4
:10112000EF5001010101056F0E50020D040EF32472
:10113000E96EEA6A000EEA22EF5001010101046F34
:1011400021EC03F00EC004F126EC0AF00E2A030E87
:101150000E64ADEF08F0AFEF08F0B5EF08F0010155
:10116000036F000E0E6E01010351B7EF08F012007D
:101170000600EACF0EF1E1CF0FF1E2CF10F1D9CFA7
:1011800011F1DACF12F1F3CF13F1F4CF14F1F6CF5E
:1011900015F1F7CF16F1F8CF17F1F5CF18F19EA0A2
:1011A000D4EF08F0D6EF08F0DDEF08F09E90300E97
:1011B000CF6E000ECE6EB4EC0BF018C1F5FF17C168
:1011C000F8FF16C1F7FF15C1F6FF14C1F4FF13C1F4
:1011D000F3FF12C1DAFF11C1D9FF10C1E2FF0FC145
:1011E000E1FF0EC1EAFF0DC1E9FF0CC1FBFF0BC11E
:1011F000FAFF11000101066F000E01010101056FE8
:10120000010106517EEC09F00009D8B40AEF09F09B
:101210000CEF09F039EF09F02FEF09F0000E010192
:101220000101076F000E0101086FEAEC0AF038EFC8
:1012300009F0000E01010101076F000E0101086FA6
:10124000F1EC09F038EF09F0000E01010101076F20
:10125000000E0101086F59EC0AF038EF09F0125046
:10126000000ADCE0010AE5E0030AEEE038EF09F0ED
:1012700011063BEF09F01200020E010101011B25CE
:10128000E96E000E010101011C21EA6EEF2A3C0EFD
:10129000EF624DEF09F04FEF09F07DEF09F0020E1C
:1012A000010101011B25E96E000E010101011C2154
:1012B000EA6E000EEF6E1BC11DF11CC11EF1BCECED
:1012C00009F00009D8B467EF09F069EF09F07DEF84
:1012D00009F01BC11DF11CC11EF113EC0BF000093C
:1012E000D8B475EF09F077EF09F07DEF09F01BC175
:1012F0001DF11CC11EF18BEC0AF012000101086FF8
:10130000000E01010101076F0101085110668BEF0A
:1013100009F08DEF09F0B5EF09F00F50D8B493EF55
:1013200009F095EF09F096EF09F00F061A0EF66E28
:10133000060EF76E0800F5CF10F00F66A2EF09F069
:10134000A4EF09F0ABEF09F01B0EF66E060EF76E78
:101350000800F5CF10F00101086F010E0101010135
:10136000076F01010851B6EF09F0100601010101F4
:101370000751BBEF09F012000101206F000E0101BF
:1013800001011F6F01012051010E010101011D2505
:10139000E96E000E010101011E21EA6EEF2A3C0EEA
:1013A000EF62D5EF09F0D7EF09F0EBEF09F0010E8E
:1013B000010101011D25E96E000E010101011E213F
:1013C000EA6E000EEF6E0101206F010E01010101B6
:1013D0001F6F01012051010101011F51F0EF09F0C0
:1013E000120001010A6F000E01010101096F0101E4
:1013F0000A51010E010101010725E96E000E0101EC
:1014000001010821EA6EEF2A3C0EEF620AEF0AF0B2
:101410000CEF0AF020EF0AF0010E0101010107258F
:10142000E96E000E010101010821EA6E000EEF6E67
:1014300001010A6F010E01010101096F01010A5149
:1014400001010101095125EF0AF01200010101011A
:101450000451D8B42EEF0AF031EF0AF0828832EF4F
:101460000AF08298010101010405D8B43AEF0AF0AC
:101470003DEF0AF0828A3EEF0AF0829A01010101F3
:101480000451020AD8B447EF0AF04AEF0AF0828406
:101490004BEF0AF08294010101010451030AD8B410
:1014A00054EF0AF057EF0AF0828658EF0AF082965E
:1014B000120001010A6F000E01010101096F010113
:1014C0000A51030E010101010725E96E000E010119
:1014D00001010821EA6EEF2A070EEF6272EF0AF0AF
:1014E00074EF0AF088EF0AF0030E010101010725ED
:1014F000E96E000E010101010821EA6E000EEF6E97
:1015000001010A6F010E01010101096F01010A5178
:101510008AEF0AF012000101206F000E01010101A3
:101520001F6F01012051030E010101011D25E96E0C
:10153000000E010101011E21EA6EEF2A070EEF6283
:10154000A4EF0AF0A6EF0AF0BAEF0AF0030E0101C9
:1015500001011D25E96E000E010101011E21EA6E47
:10156000000EEF6E0101206F010E010101011F6FDE
:1015700001012051BCEF0AF012000101016F010EC0
:1015800001010101006F01010151000E956E94945B
:1015900094969498949A0101016F040E010101013F
:1015A000046F0101015126EC0AF00101016F000EE8
:1015B00001010101056F010101510101026F170EC7
:1015C00001010101046F0101025121EC03F0E9EF77
:1015D0000AF0120001010A6F000E01010101096FFA
:1015E00001010A51180E07C1E9FF08C1EAFFEF2AFD
:1015F000EF62FDEF0AF0FFEF0AF00DEF0BF007C10D
:10160000E9FF08C1EAFF000EEF6E01010A6F010E4B
:1016100001010101096F01010A5101010101095193
:1016200012EF0BF012000101206F000E0101010109
:101630001F6F01012051180E1DC1E9FF1EC1EAFFF5
:10164000EF2AEF6226EF0BF028EF0BF036EF0BF0EE
:101650001DC1E9FF1EC1EAFF000EEF6E0101206F00
:10166000010E010101011F6F010120510101010162
:101670001F513BEF0BF01200010101010251070D58
:10168000F3CF03F1060E01010327150E0101032517
:10169000E96EEA6A000EEA22020EEF6E0101010114
:1016A0000251070DF3CF03F1040E01010327150EBC
:1016B00001010325E96EEA6A000EEA22000EEE6ED1
:1016C000000EED6E12000101066F000E0101010116
:1016D000056F01010651116670EF0BF072EF0BF010
:1016E00080EF0BF00101066F010E01010101056F92
:1016F000010106510101066F000E136E0101065132
:1017000001010101055185EF0BF012007BEC06F0A1
:10171000BDEC0AF005EC0CF0EEEC0BF0FAEC0BF083
:10172000D08EF28CF28E000E956E000E836E01EC60
:1017300007F0C3EC07F097EF0BF014EF00F0010196
:10174000076F0A0E116E010107510101076F050EA7
:101750000F6E010107511A0EF66E060EF76E0800A5
:10176000F5CF10F01268120001011A6F010E01018D
:101770000101196F01011A51000E010101011B6FD6
:10178000000E01011C6F3CEC09F0C7EF0BF01200DA
:10179000010101010251070DF3CF03F1060E010112
:1017A0000327150E01010325E96EEA6A000EEA22FD
:1017B000010EEF6E1200010101013851070DF3CF48
:1017C00039F1060E01013927150E01013925E96E9F
:1017D000EA6A000EEA22000EEF6E12000101016FAC
:1017E000010E01010101006F010101513768F9EF9C
:1017F0000BF012000101016F010E01010101006FE8
:101800000101015104EF0CF012000101016F010E02
:1018100001010101006F010101510FEF0CF01200F5
:10182000030E0C6E000E0D6E120070EC08F012002C
:08183000EDEC03F012001200C0
:00000001FF
