:0400000014EF00F009
:10000800FACF1FF1FBCF20F1E9CF21F109ED07F07D
:10001800D8CF0CF1E8CF0DF1E0CF0EF176EF06F076
:1000280000EE00F010EE0EF01EEC00F0000EF86E80
:10003800ABEF07F0EE6AE550E150FCE1E250FAE17F
:020048001200A4
:10060000003F065B4F666D7D077F6F777C395E79B3
:1006100071010204081020400000170E01010101C1
:10062000046515EF03F017EF03F01FEF03F001016E
:10063000066F170E01010101046F01010651010E41
:10064000010101010425F66EF76A060EF722080083
:10065000F5CF06F101010631D8A001D08384D8B0CE
:1006600001D08394010E010101010425F66EF76AA1
:10067000060EF7220800F5CF06F1D89001010633E7
:1006800001010631D8A001D08386D8B001D083966D
:10069000010E010101010425F66EF76A060EF7222C
:1006A0000800F5CF06F1D89001010633D89001017A
:1006B000063301010631D8A001D0838AD8B001D019
:1006C000839A010E010101010425F66EF76A060EF8
:1006D000F7220800F5CF06F1D89001010633D89033
:1006E00001010633D8900101063301010631D8A07B
:1006F00001D0838CD8B001D0839C010E010101018F
:100700000425F66EF76A060EF7220800F5CF06F10B
:100710000101063B0F0E061701010631D8A001D0DA
:10072000838ED8B001D0839E010E01010101042502
:10073000F66EF76A060EF7220800F5CF06F1050EF1
:100740000101076FD890010106330101072FA2EFC5
:1007500003F001010631D8A001D08382D8B001D0C6
:100760008392010E010101010425F66EF76A060E5F
:10077000F7220800F5CF06F1060E0101076FD890A9
:10078000010106330101072FBFEF03F0010106311C
:10079000D8A001D08380D8B001D08390010101019D
:1007A00005A101D083880101010105B101D0839821
:1007B000120001010B6F000E01010101086F010120
:1007C0000B510101010106AFE8EF03F0EAEF03F07E
:1007D000F9EF03F001010101056D0101061FD8B019
:1007E000062B01010B6F010E01010101086F0101D0
:1007F0000B510101010104AF00EF04F002EF04F01E
:100800000DEF04F001010101036D0101041FD8B0D7
:10081000042B010E01010101081B000E0101010161
:10082000096F000E01010A6F010101010651051156
:10083000D8B41DEF04F01FEF04F06EEF04F00101D7
:100840000B6F010E01010101076F01010B5132EF26
:1008500004F00101D89001010537010106370101BB
:100860000101072B0101010106AF39EF04F03BEF55
:1008700004F029EF04F00101D890010109370101CA
:100880000A3701010101055101010101035D010167
:1008900001010651010101010459D8A052EF04F0F1
:1008A00054EF04F063EF04F001010101055101016F
:1008B0000101035F01010101065101010101045B16
:1008C0000101010109810101D890010106330101F3
:1008D000053301010101072F3BEF04F00101010184
:1008E0000851D8B476EF04F078EF04F07FEF04F00D
:1008F00001010101096D01010A1FD8B00A2B09C1CC
:1009000003F10AC104F185EF04F012000101096F3F
:10091000000E01010101076F0101095101010101EF
:1009200004AF95EF04F097EF04F0A6EF04F0010197
:100930000101036D0101041FD8B0042B0101096FEF
:10094000010E01010101076F0101095101010101BE
:1009500006AFADEF04F0AFEF04F0B6EF04F0010125
:100960000101056D0101061FD8B0062B010101012F
:1009700006510511D8B4BFEF04F0C1EF04F007EF42
:1009800005F00101096F010E01010101086F01016C
:100990000951D4EF04F00101D8900101053701019C
:1009A000063701010101082B0101010106AFDBEF50
:1009B00004F0DDEF04F0CBEF04F00101010105517B
:1009C00001010101035D0101010106510101010164
:1009D0000459D8A0EEEF04F0F0EF04F0FCEF04F0BF
:1009E00001010101055101010101035F0101010143
:1009F000065101010101045B0101D8900101063398
:100A00000101053301010101082FDDEF04F00101AF
:100A100001010751D8B40FEF05F011EF05F018EF01
:100A200005F001010101036D0101041FD8B0042B81
:100A300003C103F104C104F11EEF05F0120001012E
:100A4000036F010E01010101016F01010351010159
:100A5000036F8F0ECD6E01010351300ECF6E000E6D
:100A6000CE6E9F809E909D80D59AD596D584D59246
:100A7000D580D58C000ED66EF194F28AD58E010108
:100A8000036F000E0D6E010103510101036F000E93
:100A900001010101026F01010351000E0101010179
:100AA000026555EF05F057EF05F059EF05F0A8EF97
:100AB00005F0010101010251040DF3CF03F1030E12
:100AC00001010327080E01010325E96EEA6A000E01
:100AD000EA22000EEF6E010101010251040D080E21
:100AE000F324E96EEA6A000EEA22160EEF6E0101A7
:100AF00001010251040DF3CF03F1010E010103279F
:100B0000080E01010325E96EEA6A000EEA22000ED2
:100B1000EF6E010101010251040DF3CF03F1020E4A
:100B200001010327080E01010325E96EEA6A000EA0
:100B3000EA22000EEF6E01010101022B000E0101FD
:100B400001010265A6EF05F0A8EF05F059EF05F0E9
:100B5000AAEF05F01200020E010101012F25E96E36
:100B6000000E010101013021EA6EEF2A3C0EEF6216
:100B7000BCEF05F0BEEF05F01BEF06F0020E010121
:100B800001012F25E96E000E010101013021EA6EFD
:100B9000000EEF6E010E010101012F25E96E000E1E
:100BA000010101013021EA6EEF2A3C0EEF62DBEF1A
:100BB00005F0DDEF05F01BEF06F0010E010101016C
:100BC0002F25E96E000E010101013021EA6E000EB1
:100BD000EF6E180E2FC1E9FF30C1EAFFEF2AEF6276
:100BE000F4EF05F0F6EF05F01BEF06F02FC1E9FF7B
:100BF00030C1EAFF000EEF6E030E010101012F2547
:100C0000E96E000E010101013021EA6EEF2A070EA4
:100C1000EF620DEF06F00FEF06F01BEF06F0030E8C
:100C2000010101012F25E96E000E010101013021B2
:100C3000EA6E000EEF6E12000101026F010E01015B
:100C40000101016F010102510A0E01010101056F4D
:100C5000000E0101066F010108C003F1010101014D
:100C6000046BD9EC03F0010101010351006E0A0E7F
:100C700001010101056F000E0101066F010108C0AD
:100C800003F101010101046B86EC04F00101010193
:100C90000351026E0A0E01010101056F000E0101F0
:100CA000066F010109C003F101010101046BD9ECD8
:100CB00003F0010101010351046E0A0E010101015B
:100CC000056F000E0101066F010109C003F101016A
:100CD0000101046B86EC04F0010101010351066E71
:100CE0000A50010B036E75EF06F01200FACF0FF1F8
:100CF000FBCF10F1E9CF11F1EACF12F1E1CF13F1FF
:100D0000E2CF14F1D9CF15F1DACF16F1F3CF17F105
:100D1000F4CF18F1F6CF19F1F7CF1AF1F8CF1BF194
:100D2000F5CF1CF1F2A497EF06F099EF06F09EEFD5
:100D300006F0F294000ED66EE2EC07F01CC1F5FF4F
:100D40001BC1F8FF1AC1F7FF19C1F6FF18C1F4FF64
:100D500017C1F3FF16C1DAFF15C1D9FF14C1E2FFB5
:100D600013C1E1FF12C1EAFF11C1E9FF10C1FBFF8E
:100D70000FC1FAFF0EC1E0FF0DC1E8FF0CC1D8FFA3
:100D800010000101026F010E01010101016F01015B
:100D900002510101026F040E01010101046F010102
:100DA00002514BEC07F00C50020DF3CF02F1010E93
:100DB00001010227000E01010225E96EEA6A000E18
:100DC000EA22EF5001010101056F0C50020D000EE7
:100DD000F324E96EEA6A000EEA22EF5001010101F4
:100DE000046F0DEC03F00CC004F14BEC07F00C2A7F
:100DF000030E0C64FEEF06F000EF07F006EF07F0BD
:100E00000101026F000E0C6E0101025108EF07F0A4
:100E100012000600EACF22F1E1CF23F1E2CF24F164
:100E2000D9CF25F1DACF26F1F3CF27F1F4CF28F18E
:100E3000F6CF29F1F7CF2AF1F8CF2BF1F5CF2CF12E
:100E40009EA025EF07F027EF07F02EEF07F09E900A
:100E5000300ECF6E000ECE6ECEEC07F02CC1F5FF3B
:100E60002BC1F8FF2AC1F7FF29C1F6FF28C1F4FF03
:100E700027C1F3FF26C1DAFF25C1D9FF24C1E2FF54
:100E800023C1E1FF22C1EAFF21C1E9FF20C1FBFF2D
:100E90001FC1FAFF1100010101010451D8B453EF41
:100EA00007F056EF07F0828857EF07F082980101AC
:100EB00001010405D8B45FEF07F062EF07F0828A02
:100EC00063EF07F0829A010101010451020AD8B4CC
:100ED0006CEF07F06FEF07F0828470EF07F08294F9
:100EE000010101010451030AD8B479EF07F07CEF46
:100EF00007F082867DEF07F0829612000101026FF3
:100F0000010E01010101016F01010251000E956EF8
:100F1000949494969498949A0101026F040E01019E
:100F20000101046F010102514BEC07F00101026F56
:100F3000000E01010101056F010102510101036F62
:100F4000170E01010101046F010103510DEC03F0C3
:100F5000AAEF07F012001FEC05F07EEC07F0F3ECAF
:100F600007F0D08EF28CF28E000E956E000E836E1E
:100F70000D50D8B4BEEF07F0C0EF07F0C8EF07F090
:100F80000101006F000E0D6E01010051C1EC06F071
:100F90001CEC06F0B8EF07F014EF00F001012E6F23
:100FA000010E010101012D6F01012E51080E0101F9
:100FB00001012F6F000E0101306FABEC05F0E1EF86
:100FC00007F0120001011E6F010E010101011D6FEA
:100FD00001011E5101011E6F010E0D6E01011E5116
:100FE000F2EF07F012000101026F010E0101010191
:0C0FF000016F01010251FDEF07F012003B
:00000001FF
